:020000040800F2
:10000000800D0020C1540008CD360008CF3600080E
:10001000D1360008D3360008D536000800000000AD
:10002000000000000000000000000000D7360008BB
:10003000D936000800000000DB360008DD36000875
:10004000E5540008E9540008ED540008EB360008B8
:10005000F1360008F1540008F5540008F95400087E
:10006000FD54000801550008F53600080555000844
:10007000FB360008095500080D5500080137000837
:10008000073700080D3700081155000815550008FE
:10009000195500081D550008215500082555000870
:1000A000295500082D550008315500083555000820
:1000B000395500083D550008133700084155000820
:1000C00045550008495500084D5500085155000890
:1000D00055550008193700081F3700084F3700082A
:1000E00079370008595500085D55000800F5E070A3
:1000F0000268914203D343689A18914202D3806800
:100100000028F5D17047DFF86007016891B9DFF882
:100110005C274FF4803181604FF4805141604FF093
:10012000FF31C160016104214161C2F8BC11DFF8F7
:10013000401701600120704701F1080313F0070325
:1001400005D001F10803C3F1080303F007035918B0
:10015000D21A8161C26042F001034B60511828231A
:100160004B60DFF804170969C16170472DE9F04F52
:10017000064601F1080083B010F0070008BF88466A
:1001800007D001F10800C0F1080000F0070000EB03
:10019000010802F1080010F0070006D002F1080083
:1001A000C0F1080000F0070082181546A5EB080012
:1001B000A0EB030903EB080B43F00300C8F80400AD
:1001C000AB4528BF01F012FA2879C00758BF01F0EB
:1001D0000DFAB9F1100F38BF01F008FAB069854285
:1001E00009D1F0684844F060C6F818B040F001004A
:1001F000CBF804006DE1706985420BD1B0684844CA
:10020000B060C6F814B040F00101CBF8041040F81B
:100210000B005EE1686800F00301012940F0AD8049
:10022000C008C0000190C00820283AD2D5F808A024
:10023000EF680090BD4208BF01F0D8F9554508BFEE
:1002400001F0D4F968680099C008C000B0EBC10F94
:1002500018BF01F0CBF9009806EBC00000F12801AF
:100260008A4507D031698A45C0F08280DAF80C10DF
:10027000A9427DD1574506D1009A306801219140AD
:100280008843306076E02830874205D03069874265
:100290006ED3B868A8426BD1CAF80C70C7F808A032
:1002A00068E0EF68D5F818A0AF420CD0A8683169B3
:1002B000884223D3C168A94204BFB968A9421DD1AD
:1002C000C760B8601CE005F11400076837B905F194
:1002D00010000768A7B101E00846076807F114019C
:1002E0000A68002A02BF07F110010A68002AF3D148
:1002F0003169884202D30021016001E001F076F902
:10030000BAF1000F36D0E86906EB800000F598706E
:1003100001688D4208D10760A7B9EA6970680121B8
:1003200091408843706025E03069824508D3DAF84F
:100330001000A84214BFCAF81470CAF8107001E087
:1003400001F054F9B7B13069874211D3C7F818A04A
:10035000296929B1814226BF39618F6101F046F9CF
:10036000686938B13169884202D37861876101E0F8
:1003700001F03CF901984519814468684008400043
:1003800068604FEAD90549F00100CBF8040049F84C
:100390000B90202D23D206EBC50000F12807BA46AA
:1003A000B9F1100F38BF01F021F9306820FA05F1DA
:1003B000C90704D40121A9400843306006E0B868A9
:1003C000316988422CBF824601F010F9C7F808B0A5
:1003D000CAF80CB0CBF808A0CBF80C7079E05FEA53
:1003E000192108BF002023D0B1F5803F28BF1F206E
:1003F0001ED2A1F58070000C00F008008140A1F52C
:100400008052120C02F004029140A1F580431B0CB3
:10041000C0F10E0003F00203801AC01A994000EBED
:10042000D130C11D29FA01F101F0010101EB4000B9
:10043000CBF81C000022CBF81420CBF8102006EBE0
:100440008001726822FA00F301F59871DB0707D486
:10045000012303FA00F010437060C1F800B01DE002
:100460001F2809680EBF00204008C0F1190009FAD2
:1004700000F000E011464A68D208D2004A4514D084
:10048000C20F01EB820202F1100340001A68002A39
:10049000F0D1306983421AD3C3F800B0CBF81810FA
:1004A000CBF80CB0CBF808B013E032698868914201
:1004B00028BF90420BD3C0F80CB0C1F808B0CBF8FD
:1004C0000800CBF80C100020CBF8180001E001F078
:1004D0008DF808F1080000F0FABD2DE9FA4D054647
:1004E000DFF88403006884B008B9FFF70CFEDFF87A
:1004F00078030499806841182F31401E21EA0000DA
:100500000499814280F0AB8105F5D876B16841B19C
:10051000D5F8B0218018824280F0A1818142C0F0DC
:100520009E8101F07DF800281EBF0446D0F80080AF
:1005300014F1010F00F09381D5F8B0014044C5F8E3
:10054000B0017168814238BF01467160A86980BB03
:10055000286908B1844200D22C613461C6F8148045
:100560000020F06105F12801BF48006868624FF083
:10057000FF3028620020C960896001F10802801CF8
:10058000D260103192602028F5D3B848854203D15B
:10059000A8F12802214629E055F8040CC00805EB13
:1005A000C000A0F1080108EB0400401AA0F12802E5
:1005B0001CE005F5E071084600E08068D0B10268F3
:1005C00043689A189442F8D1027B120712D4AA69A0
:1005D00003689A420ED347683B449A420AD208EB1A
:1005E00007014160E868A96908EB00022846FFF7A7
:1005F000A3FD1EE12869844238BF2C61084608EB40
:10060000040100E0806880B102688A42FAD1017B6F
:1006100009070AD404604168414441602146049BB3
:10062000284606B0BDE8F04DA0E5AF69394628463A
:10063000FFF75CFD01684068401802902F3800F118
:10064000080111F0070105D000F10801C1F108010E
:1006500001F00701081807F11001884234BF009724
:10066000009000980830019004F10801009800F112
:10067000180A4FF0000BA8F1280011F0070105D06F
:1006800004F10801C1F1080101F007010A19401A3B
:10069000AA61E86040F001015160801828214160A2
:1006A00071480069E861019810F0070018BF00F078
:1006B0009DFF00991B20486005F5E071B1E80C50E2
:1006C0000198A0E80C503461C6F81480C6F81CB03C
:1006D0000198B061029800E08A460722CAF8042017
:1006E0000AF104010A1D0BF1010B8242F4D3BBF1A4
:1006F000020FB8BF00F07AFF0098B84200F099806E
:10070000C01BC119C4084A68520852004A6040F030
:1007100001017960C051202C20D205EBC40101F108
:100720002806B046102838BF00F060FF286820FA7D
:1007300004F1C90704D40121A1400843286006E060
:10074000B068296988422CBF804600F04FFFB7602F
:10075000C8F80C70C7F80880FE606AE0010A08BF9C
:10076000002223D0B1F5803F28BF1F221ED2A1F561
:100770008072120C02F008029140A1F580531B0C0C
:1007800003F004039940A1F58044240CC2F10E0249
:1007900004F00204D21A121BA14002EBD131CA1D8F
:1007A00020FA02F202F0010202EB4102FA61002398
:1007B0007B613B6105EB82016B6823FA02F401F572
:1007C0009871E40705D401209040184368600F60D9
:1007D0001CE01F2A09680EBF00225208C2F119024C
:1007E00000FA02F200E019464B68DB08DB008342A6
:1007F00010D0D30F01EB830303F1100452002368E0
:10080000002BF0D12869844211D32760B961FF60C1
:10081000BF600EE02A698868914228BF904206D3E3
:10082000C7608F60B860F9600020B86101E000F037
:10083000DDFEE8680499814211D2401AE860A96996
:10084000049A5218AA6140F001005060049840F0E8
:100850000300486006B001F10800BDE8F08D0020FB
:1008600006B0BDE8F08D000050050020100000200B
:100870006859883C2DE9F04D044688460026C8F1A9
:10088000000B5FEA182008BF002123D0B0F5803F9D
:1008900028BF1F211ED2A0F58071090C01F00801AC
:1008A0008840A0F58052120C02F004029040A0F59E
:1008B00080431B0CC1F10E0103F00203891AC91A0F
:1008C000984001EBD030C11D28FA01F101F001017F
:1008D00001EB400104EB8100D0F8300130B31F2957
:1008E0000EBF00224A08C2F1190208FA02F20023E0
:1008F00000E052004568ED08ED00A5EB08055D45F8
:1009000003D206465FEA050B0CD045694FEAD27E5A
:1009100000EB8E00002D00691CBF85422B4600288D
:10092000E7D1184600283AD1002E3AD1012088405C
:100930004000414208436168084000F0658141423F
:100940000840411E080B00F0100021FA00F2510986
:1009500001F00801CA40930803F00403DA40550887
:1009600005F002050818EA401818C2F3400E2844A2
:10097000704422FA0EF1081804EB8000D0F8300120
:100980000DE008464168C908C900A1EB08015945B6
:100990003CBF8B46064601690029F2D14069002818
:1009A000F0D1002E00F03081A068A0EB0800834554
:1009B00080F02A8120698642C0F024817068C008D6
:1009C000C00008EB0B0108EB0605884218BF00F0D9
:1009D0000DFEAE4280F01681F768D6F818A0B74237
:1009E0000CD0B0682169884223D3C168B14204BFEA
:1009F000B968B1421DD1C760B8601CE006F11400AF
:100A0000076837B906F110000768A7B101E008468A
:100A1000076807F114010A68002A02BF07F11001F4
:100A20000A68002AF3D12169884202D300210160BB
:100A300001E000F0DBFDBAF1000F38D0F06904EB03
:100A4000800000F5987001688E4209D10760380077
:100A500014D1F2696068012191408843606026E00A
:100A60002069824508D3DAF81000B04214BFCAF8F2
:100A70001470CAF8107001E000F0B8FDBFB1206931
:100A8000874212D3C7F818A0306930B12169884273
:100A900026BF3861876100F0A9FD706938B121690E
:100AA000884202D37861876101E000F09FFDBBF1CD
:100AB000100F0CD208EB0B0040F00300706008EB45
:100AC0000B008019416841F00101416096E048F057
:100AD000030070604BF0010068604BF805B04FEA0E
:100AE000DB0020281DD204EBC00101F1280721689A
:100AF00021FA00F2BB46D20705D4012202FA00F027
:100B00000843206006E0B868216988422CBF83460C
:100B100000F06CFDBD60CBF80C50C5F808B0EF607C
:100B20006CE05FEA1B2108BF002023D0B1F5803FB5
:100B300028BF1F201ED2A1F58070000C00F0080015
:100B40008140A1F58052120C02F004029140A1F5FF
:100B500080431B0CC0F10E0003F00203801AC01A80
:100B6000994000EBD130C11D2BFA01F101F00101D8
:100B700001EB4000E86100226A612A6104EB800118
:100B8000626822FA00F301F59871DB0706D40123AD
:100B900003FA00F0104360600D601CE01F28096834
:100BA0000EBF00204008C0F119000BFA00F000E071
:100BB00011464A68D208D2005A4510D0C20F01EB44
:100BC000820202F1100340001A68002AF0D1206965
:100BD000834211D31D60A961ED60AD600EE0226912
:100BE0008868914228BF904206D3C5608D60A86096
:100BF000E9600020A86101E000F0F8FC06F10800BF
:100C0000BDE8F08D00F0F2FC0020BDE8F08D2DE98C
:100C1000F84F04468846606841420840411E080B70
:100C200000F01000C1404A0902F00802D1408B08D0
:100C300003F00403D9404D0805F002051018E940FF
:100C40001818C1F3400628443018F140081804EB86
:100C50008000D0F830014168C908C9000646A1EB00
:100C6000080A09E008464168C908C900A1EB080163
:100C700051453CBF8A46064601690029F2D14069C8
:100C80000028F0D120698642C0F0C4807068C00896
:100C900008EB0A09C00008EB060B484518BF00F036
:100CA000A5FC5E4580F0B680F768B569B7420CD008
:100CB000B0682169884223D3C168B14204BFB968D2
:100CC000B1421DD1C760B8601CE006F1140007688E
:100CD00037B906F110000768A7B101E008460768B8
:100CE00007F114010A68002A02BF07F110010A681F
:100CF000002AF3D12169884202D30021016001E07A
:100D000000F074FC002D34D0F06904EB800000F595
:100D1000987001688E4209D10760380011D1F269DC
:100D20006068012191408843606022E0206985422B
:100D300005D32869B04214BF6F612F6101E000F054
:100D400055FCB7B12069874211D3BD61306930B11C
:100D50002169884226BF3861876100F047FC7069CD
:100D600038B12169884202D37861876101E000F0DF
:100D70003DFCBAF1100F09D249F00300706009EB95
:100D80000600416841F0010141603FE048F0030086
:100D900070604AF00100CBF804004AF80BA0D4F8C8
:100DA00008804FEAD805202D28BF00F01FFCB8F1BD
:100DB000000F27D0D4F81490009504EBC50000F183
:100DC00028052F46B8F1100F38BF00F00FFC20683F
:100DD000009920FA01F1C90705D4009A0121914038
:100DE0000843206006E0A868216988422CBF0746B6
:100DF00000F0FCFBC5F80890C7F80C90C9F8087023
:100E0000C9F80C50C4F808A0C4F814B006F10800E2
:100E1000BDE8F28F00F0EAFB0020BDE8F28F2DE97B
:100E2000F04F83B00546C046C046DFF8B847F52D01
:100E300080F002810B2D31BF102705F10B00C00897
:100E4000C7002068FE08F04010F0030F42D0C043F6
:100E500000F00100861904EBC60000F12808F70035
:100E6000D8F808506868C008C000B84218BF00F041
:100E7000BDFBD5F80890454508BF00F0B7FB4D45D0
:100E800008BF00F0B3FB6868C008C000B84218BFD4
:100E900000F0ACFBC84505D120680121B140884372
:100EA00020600DE02069814508D3D9F80C00A842E4
:100EB00004D1C8F80890C9F80C8001E000F096FB56
:100EC00047F00300686078190835416841F0010176
:100ED0004160F9E0A168B94280F0C080002800F0CC
:100EE000A280012505FA06F149004A42B0401143AB
:100EF000084041420840411E080B00F01000C1406C
:100F00004A0902F00802D1408B0803F00403D940DB
:100F10004E0806F002061018F1401818C1F34008F8
:100F20003018404421FA08F101EB000804EBC80036
:100F300000F128094FEAC80AD9F808607068C008AB
:100F4000C000504518BF00F051FBD6F808B04E4520
:100F500008BF00F04BFB5E4508BF00F047FB706820
:100F6000C008C000504518BF00F040FBD94505D16E
:100F7000206805FA08F1884320600DE02069834568
:100F800008D3DBF80C00B04204D1C9F808B0CBF8A4
:100F90000C9001E000F02AFB47F003007060AAEB20
:100FA0000708B819019048F00100019948600198BC
:100FB00048F80080A7684FEAD70ABAF1200F28BF87
:100FC00000F014FB47B3CDF800A004EBCA00D4F83E
:100FD000149000F1280AD346102F38BF00F006FB0A
:100FE0002068009920FA01F1C90705D4009905FA93
:100FF00001F10843206007E0DAF80800216988421F
:101000002CBF834600F0F2FACAF80890CBF80C9097
:10101000C9F808B0C9F80CA0C4F8088006F10805A2
:101020000198606150E06068C0B339462046FFF720
:10103000EEFD050012D047E015F1400F28BF4FF03C
:10104000FF370BD205F10B00C008C700606828B15C
:1010500039462046FFF70EFC050035D1A068B8429E
:101060001CD3C11B626910290AD3B8186061A16042
:1010700041F001034360095047F0030050600AE06B
:101080000021A160616140F0030151608018416856
:1010900041F00101416002F1080515E0E068874276
:1010A0000DD2C01BA169E0607A18A26140F0010076
:1010B000506001F1080547F00300486004E039463C
:1010C0002046FFF70AFA0546C046C046284603B048
:1010D000BDE8F08F00B970472DE9F047A0F1080492
:1010E000C046C046DFF8FC5428698442C0F07482D0
:1010F000616801F00302012A00F06E82CA084FEA1B
:10110000C20808EB0409CA0736D4226811F0030F9D
:1011100000F06482A41A90448442C0F05D82696940
:101120008C4200F0D880D608202E70D2D4F80CA0C3
:10113000A768544508BF00F059FABC4208BF00F048
:1011400055FA6068C008C000B0EBC60F18BF00F0C9
:101150004DFA05EBC60000F128018F4205D0296940
:101160008F4251D3F968A1424ED1BA453DD128688A
:101170000121B140884328604C4580F02D82D9F888
:101180000400C10740F12882810700F17A81A96932
:10119000894540F0B580E868AC614044E86040F0C3
:1011A0000101616069698C4202D100216961A96015
:1011B000E969814280F01282DFF82C04006808B9E6
:1011C000FEF7A1FFA969002900F00882E868292834
:1011D00024BF2846FEF78AFFE869E968884280F064
:1011E000FD814FF0FF30E861F8E12830824506D0FC
:1011F0002869824508D3DAF80800A04204D1C7F86C
:101200000CA0CAF80870B7E700F0F0F9B4E7E76897
:10121000A669A7420BD0A168814222D3C868A04228
:1012200004BFB868A0421CD1CF60B9601BE004F1D4
:1012300014010F6837B904F110010F689FB101E084
:1012400011460F6807F114021368002B02BF07F163
:1012500010021368002BF3D1814202D300200860F2
:1012600001E000F0C3F9002E86D0E06905EB8000B4
:1012700000F5987001688C4209D10760380011D1DF
:10128000E2696868012191408843686074E72869D1
:10129000864205D33069A04214BF7761376101E00F
:1012A00000F0A4F9002F3FF467AF28698742ABD361
:1012B000BE61216929B1814226BF39618F6100F089
:1012C00095F9606900283FF457AF296988429BD39C
:1012D0007861876150E799F8040000F00300032863
:1012E0007FF44AAFC5F80880D9F8040040084000F0
:1012F000C9F8040048F00100606048F804806DE11E
:101300006969894508D1A8686C614044A86040F0CB
:1013100001016160005161E1C008C0004FEAD00ADC
:101320008044BAF1200F36D2D9F80C70D9F8086091
:10133000B94508BF00F05AF9B14508BF00F056F9A9
:10134000D9F80400C008C000B0EBCA0F18BF00F005
:101350004DF905EBCA0000F128018E4206D029693B
:101360008E42C0F08180F16849457DD1B74206D1F7
:101370002868012101FA0AF18843286076E02830C4
:10138000874205D0286987426ED3B86848456BD13B
:10139000F760BE606AE0D9F80C70D9F818604F4564
:1013A0000DD0D9F808002969884223D3C16849457E
:1013B00004BFB96849451DD1C760B8601CE009F198
:1013C0001400076837B909F110000768A7B101E0F8
:1013D0000846076807F114010A68002A02BF07F1EE
:1013E00010010A68002AF3D12969884202D300213A
:1013F000016001E000F0FAF8002E37D0D9F81C00A7
:1014000005EB800000F59870016889450AD10760F6
:10141000380012D1D9F81C20686801219140884316
:10142000686023E02869864205D33069484514BFC7
:101430007761376101E000F0D9F8BFB128698742D0
:1014400012D3BE61D9F8101029B1814226BF39618B
:101450008F6100F0CBF8D9F8140038B129698842BF
:1014600002D37861876101E000F0C0F848F0010024
:10147000606048F80480686984420BD1C5F8088030
:10148000ACE040084000C9F8040048F0010060608A
:1014900048F804804FEAD807202F22D205EBC70076
:1014A00000F128094E46B8F1100F38BF00F09EF841
:1014B000286820FA07F1C90704D40121B94008437C
:1014C000286007E0D9F80800296988422CBF064641
:1014D00000F08CF8C9F80840F460A660C4F80C90DD
:1014E0007CE05FEA182008BF002123D0B0F5803FE0
:1014F00028BF1F211ED2A0F58071090C01F0080140
:101500008840A0F58052120C02F004029040A0F531
:1015100080431B0CC1F10E0103F00203891AC91AA2
:10152000984001EBD030C11D28FA01F101F0010112
:1015300001EB4001E16100226261226105EB810063
:101540006A6822FA01F300F59870DB0706D40123DC
:1015500003FA01F11143696004601CE01F2900686F
:101560000EBF00214908C1F1190108FA01F100E09C
:1015700010464268D208D200424510D0CA0F00EB94
:10158000820202F1100349001A68002AF0D1296989
:101590008B4211D31C60A061E460A4600EE02A6954
:1015A0008168904228BF914206D3CC608460A160DC
:1015B000E0600020A06101E000F018F8286A401EF9
:1015C00028620BD1D5F8C80100E080680028FCD162
:1015D0004FF0FF30286201E000F008F8C046C04636
:1015E000BDE8F0871000002050050020012000F029
:1015F0002DB810B450F8041B81B102681218001DF8
:1016000050F8043BDC0744BFA9F10104E31852F889
:10161000044B43F8044B091FF9D1EBE710BC7047AA
:101620000749086808B1002070470648C008C00094
:1016300008600549C908C900091A0160704700BF60
:1016400074050020870D00208015002080B5C0465D
:10165000C046024A11001820ABBEFBE7260002007C
:10166000DFF81008017839B10178491C0170017860
:101670003C29A4BF00210170704710B5DFF8F8477E
:10168000B4F8111081421EBFDFF8F047B4F8111012
:10169000814209D1D4F80D0000F0FCFC012801D1F1
:1016A000207010BD0020207010BD38B50446002504
:1016B0006170052000F055FD607828B1022821D026
:1016C0001ED3032827D02FE00022B4F81710D4F837
:1016D000130000F0E6FC0022B4F81D10D4F8190045
:1016E00000F0DFFC022000F03CFDD4F82100DFF820
:1016F000901700686D1C884218D1DFF880071CE045
:101700000122E2E7B4F81710D4F81300002200F029
:10171000C8FC0122E0E7B4F81710D4F81300012246
:1017200000F0BFFC0122D7E7002032BDDFF85417DC
:1017300088420CBFDFF8400700200078ADB210B936
:10174000B5F5FA7FCEDBB5F5FA7F01DB002032BDBF
:10175000012032BD70B50446DFF824672068B0422E
:1017600008BFDFF8185706D0DFF8181788420CBFFB
:10177000DFF8045700254121284600F009FD2068C4
:10178000B0420CD1DFF80007C5F80D004FF400613E
:10179000A5F81110C5F813004FF4807110E0DFF8C0
:1017A000E416884214D1DFF8E006C5F80D004FF4C6
:1017B00000511020A5F81100DFF8D006C5F813007D
:1017C000A5F81710C5F819004FF48050A5F81D00B2
:1017D000C5F8214070BD10B50068DFF8A416884236
:1017E00008BFDFF8984606D0DFF8982690420CBF75
:1017F000DFF884460024D4F8210002688A422BD105
:101800004021A4F82D100021A4F82F10DFF868164D
:1018100001F15402C4F8312054310022C4F83520BB
:10182000DFF86C26C4F829200022C4F825204022C5
:1018300000F01EFED4F821000068C16841F01001DC
:10184000C16020460021FFF730FF802001F048F8FA
:10185000C4F83D00002021E0DFF8280682421FD1B5
:101860000020A4F82D0001210F20A4F82F00002053
:10187000C4F83100DFF81C06C4F835000020C4F8B5
:101880002900DFF81406C4F825002046FFF70DFFF5
:101890000020C4F83D00802001F022F8C4F839008F
:1018A00010BD0000012A0CBFC022C2220A700288AB
:1018B000120A4A7002888A7082786AB1022A07D0B6
:1018C00002D3032A08D09FE0CA7842F0400202E027
:1018D000CA7842F08002CA70C278072A00F2948067
:1018E000DFE802F02004080C1014181CCA7842F03B
:1018F000080216E0CA7842F0100212E0CA7842F0FC
:1019000018020EE0CA7842F020020AE0CA7842F0DB
:10191000280206E0CA7842F0300202E0CA7842F0BB
:101920003802CA700279072A6ED8DFE802F018047C
:10193000080C10141414CA7842F001020EE0CA78A0
:1019400042F002020AE0CA7842F0030206E0CA78D6
:1019500042F0040202E0CA7842F00502CA704279FD
:10196000202A51DA0A7182792AB1012A4CD14A79A6
:1019700042F080024A71C2792AB1012A44D14A79DF
:1019800042F040024A71027A072A3DD8DFE802F0AD
:101990002004080C1014181C4A7942F0080216E0C2
:1019A0004A7942F0100212E04A7942F018020EE041
:1019B0004A7942F020020AE04A7942F0280206E021
:1019C0004A7942F0300202E04A7942F038024A7124
:1019D000427A1AB14A7942F004024A71807A48B1D7
:1019E000022809D002D303280AD00DE0487940F03C
:1019F0000100487101207047487940F00200F8E783
:101A0000487940F00300F4E70020704780B5D0F833
:101A100021000168CA6822F40052CA604FF41651CE
:101A2000416000218160016100F0C6FB28B140F2F5
:101A3000F5110FF27C4001F0EDF9BDE802400A20FB
:101A400000F08FBB2DE9F04188B00FF29C42B2E864
:101A5000F85100A9A1E8F851D0F821100A68D3681C
:101A600023F40053D36000AA437952F823204A603C
:101A70000079002818BF032802D1002088600EE0FA
:101A8000012805D14FF4805088604FF4C06006E013
:101A9000022805D14FF4805088604FF480600861BF
:101AA000084600F089FB28B140F20D210FF20040FA
:101AB00001F0B0F90A2000F054FB08B0BDE8F08155
:101AC000DCB50E460068DFF8B813884208BFDFF8BF
:101AD000AC4306D0DFF8AC1388420CBFDFF8984364
:101AE00000242046FFF792FF03212046FFF7DDFD8B
:101AF0000B223146A01C01F08FF90FF2A03706CF60
:101B000000A8083F06C0002CF9D0A01C04D1FEE7B5
:101B100006CF00A8083F06C0012200A9A01CFFF7BD
:101B2000C1FE0028F4D00A2000F01BFBD4F82100ED
:101B30006423062200A900F070FB0028E8D10022EF
:101B4000062100A801F0A4F9D4F821004FF47A731B
:101B5000062200A900F0CCFB0028D9D12046FFF7CF
:101B600071FF00212046FFF7A0FD00220B21A01CE1
:101B700001F0ACF9D3BD2DE9F04184B00068C04953
:101B8000884208BFBD4C04D0BE4988420CBFBA4C45
:101B900000242046FFF73AFF03212046FFF785FD8A
:101BA00001AD0FF204360FF2FC2800AF00A8D8F800
:101BB0000010016001A806CE06C0C1208DF800000B
:101BC0007870B870083ED4F821006423032200A97D
:101BD00000F023FB0028E9D1D4F821004FF47A73F8
:101BE000062201A900F084FB0028DFD16978AA78D9
:101BF000A01C42EA01210180E97889098170E97815
:101C0000C1F3C201C170E97801F0070101712979BE
:101C100041716979C90981716979C1F38011C17113
:101C20006979C1F3C20101726979C1F3800141721E
:101C3000697901F0030181722046FFF703FF00215B
:101C40002046FFF732FD04B0BDE8F08110B584B046
:101C5000040A8DF800408DF8021000ACA521E17057
:101C600060700C218DF80410ADF805008DF8072088
:101C7000A36009210DF1030001F05BF9A0810F229F
:101C80005A208DF80E0000A97B48D0F8390000F0EA
:101C900048FE00B1012004B010BD70B5774902685C
:101CA000D1F821301B689A4208BF01F11F0402D00D
:101CB00001F07BFA0446D4F80A10E0890968496803
:101CC000451AADB2002D07BF2188002921888D4219
:101CD00028D07DB9218869B12188421AD4F8120030
:101CE0000918D4F81E0092B200F01BFEE0B10020EB
:101CF000208017E02088A84216DA2688D4F812003F
:101D00003118AA1BD4F81E0092B200F00AFE58B196
:101D100020882818801B20802088E189884204BF01
:101D200000202080012070BD002070BD10B5534CF4
:101D3000D4F8211000680A6890420CD10846FFF7D9
:101D4000ACFFB4F82D20D4F83110D4F82100BDE850
:101D5000104000F08DBB10BD70B5484CD4F83D600C
:101D60008AB00D2205A9304600F02EFE00285AD078
:101D70009DF81400A52802BF05AD287B5A284AD13A
:101D80000A2105A801F0D5F8698988424BD1297943
:101D9000642902D066292ED030E0688801F089FAE3
:101DA000012831D169880022782001F0E2F96888A1
:101DB000010A8DF8041001AE1E217070B170A6F8F2
:101DC0000500A5216420F1708DF80B000C21002086
:101DD0003171B06009210DF1070001F0AAF8B0815E
:101DE0000F225A208DF8120001A92348D0F839009B
:101DF00000F097FD08E06B79002202E06B79DDF8D6
:101E00001A20688801F0A3FA01F06BFB014668888C
:101E100001F0CCFB07E00D21304600F00AFE00A9DE
:101E2000304600F0B4FD134D287808BBD4F82100EB
:101E300013490068884204D0124988420CBF0E4CF6
:101E400000242078A0B10C4CB4F82F20D4F8351021
:101E5000D4F83900D2B200F0B7FD40B1B4F82F2069
:101E6000D4F83510D4F8210000F0C2FA012028700F
:101E70000AB070BD78050020FC020020DC030020C1
:101E8000003801400048004000080140000C0140BB
:101E90002004002040030020EC040020000000008B
:101EA0000000000000000000000000000000000032
:101EB000433A5C55736572735C41646D696E697316
:101EC000747261746F725C506572736F6E616C5C7A
:101ED0006C6F72615C7365727665725C5372635C81
:101EE0004C6F72612E630000B004000060090000B6
:101EF000C012000080250000004B0000009600008A
:101F000000E1000000C201002DE9F84F002400228A
:101F10006FF01F03DFF8A881DFF8A891DFF8A8A110
:101F20004FF00F0B012505FA02F70D6807EA050EC1
:101F3000BE4540F0A8804D684DB3012D1AD0022D4A
:101F40001DD0032D2ED0112D16D0122D1BD05F4E7B
:101F5000B5421CBF5E4EB54219D05E4EB5421CBFA5
:101F60005D4EB54213D05D4EB5421CBF5C4EB542CE
:101F70000DD018E0CC6816E0CD682C1D13E0CD68BC
:101F800005F108040FE0CD6805F10C040BE08C6846
:101F90000CB9042407E0012C19BF08244761082468
:101FA000076100E00024BEF1FF0F99BF8446950051
:101FB00000F1040C1D46DCF800600BFA05F7BE4387
:101FC00004FA05F53543CCF800504D68ED005AD5BC
:101FD000DAF8005045F00105CAF800504FEA920CBB
:101FE000DAF8006006F001050095009D59F82C60B4
:101FF00002F00305AD000BFA05F7BE43394FB842B6
:1020000008BF00270ED0384FB84208BF012709D0BB
:10201000364FB84208BF022704D0354FB8420CBF34
:102020000327042707FA05F5354349F82C504D6876
:10203000ED03D8F800504CBF4EEA050525EA0E0521
:10204000C8F800504D68AD03D8F804504CBF4EEAB4
:10205000050525EA0E05C8F804504D68ED02D8F8CC
:1020600008504CBF4EEA050525EA0E05C8F8085091
:102070004D68AD02D8F80C504CBF4EEA050525EA74
:102080000E05C8F80C50521C1B1D102AFFF44AAF55
:10209000BDE8F18F80680840401E8041C043C00FFA
:1020A000704702B9090401617047124A136803427C
:1020B00000D1704780B5106001F062FB01BD0000E7
:1020C00000040140080001401810024000001110F7
:1020D000000012100000211000002210000031103A
:1020E0000000321000080140000C014000100140C7
:1020F000001401401404014080B52248016841F0F9
:1021000010010160032001F077FB002000F004F8CB
:1021100001F0E6FB002002BD38B51B4D29780446CE
:102120004FF47A70B0FBF1F018490968B1FBF0F098
:1021300001F0A5FB50B9102C08D2002221464FF027
:10214000FF3001F066FBAC60002032BD012032BDE3
:102150000D48416802785118416070470A4840684C
:10216000704738B50446FFF7F9FF054614F1010F33
:1021700002D0054800780419FFF7F0FF401BA04289
:10218000FAD331BD00200240000000200C000020E6
:10219000002200F09FBE50F8041B61B150F8042BE0
:1021A000D30744BFA9F101039A18002342F8043B66
:1021B000091FFAD1EFE7704710B5040001D10120E3
:1021C00010BD94F8390020B984F83800204601F099
:1021D00012FC242084F839002068C16821F40051E1
:1021E000C160204600F00AFB2068016921F490419B
:1021F00001612068416921F02A01FFE741612068FF
:10220000C16841F40051C1600020E063202084F8DF
:10221000390084F83A00002010BD2DE9F041044651
:102220000D4694F8390017461E4620285DD1002D32
:1022300014BF002F012059D094F83800012854D041
:10224000012084F838000020E063212084F8390060
:10225000FFF784FFA7848046E78402E015F8011B9E
:102260004160E08C70B3E08C401EE084A068B0F563
:10227000805F18D12068016809060AD416F1010FA1
:10228000F8D06EB3FFF76AFFA0EB08008642F1D2E8
:1022900026E02988C905C90D41602069002814BFBE
:1022A0006D1CAD1CDDE7206801680906D6D416F167
:1022B000010FF8D0A6B1FFF751FFA0EB080086424E
:1022C000F1D20DE02068006840060AD416F1010F33
:1022D000F8D02EB1FFF742FFA0EB08008642F1D202
:1022E00071E0202084F8390068E00220BDE8F08128
:1022F0002DE9F0410446884694F83A0017461E46F8
:10230000202858D1B8F1000F14BF002F012053D05E
:1023100094F8380001284ED0012084F838000020BD
:10232000E063222084F83A00FFF718FFA7850546EE
:10233000E78503E0C005C00D28F8020BE08D0028FA
:1023400035D0E08D401EE085A068B0F5805F15D1E6
:1023500020680168890609D416F1010FF8D026B16A
:10236000FFF7FCFE401B8642F2D22CE02169406858
:102370000029DFD0C0B228F8010BDFE72068016830
:1023800089060AD416F1010FF8D0002EEDD0FFF720
:10239000E5FE401B8642F1D2E7E72169406800294B
:1023A00002D108F8010BC9E700F07F00F9E720200F
:1023B00084F83A0002E00220BDE8F081002084F8B1
:1023C0003800BDE8F0812068C16821F4D071C16097
:1023D00020684169490849004161202084F839009A
:1023E00084F83A00002084F838000320BDE8F0812A
:1023F00010B5044694F83900202837D1002918BFB9
:10240000002A01D1012010BD94F8380001282DD0F8
:10241000012084F838002162A284E2840020E06375
:10242000212084F83900236B0FF24D209862236B32
:102430000FF27520D862236B0FF2C12018630020C1
:10244000236B586313462068021D206B01F02DFC9E
:1024500021686FF040000860002084F83800206890
:10246000416941F080014161002010BD022010BD92
:1024700010B5044682B094F83A00202844D10029CF
:1024800018BF002A01D1012016BD94F83800012898
:102490003AD0012084F83800A162A2850020E063D0
:1024A000222084F83A00636B0FF209209862636B74
:1024B0000FF23D20D862636B0FF2412018630020B9
:1024C000636B5863134620680A46011D606B01F078
:1024D000ECFB0020009020680168009141680091A9
:1024E0000099002184F83810C16841F48071C160FE
:1024F0002068416941F0010141612068416941F072
:1025000040014161002016BD022016BD38B50446C9
:1025100023681868D9685A6910F00F0F07D182062E
:1025200068D58A0666D52046BDE832401EE1D5074B
:1025300002D411F4907F5DD0C30705D5CB0503D538
:10254000E36B43F00103E363430705D5D30703D5EA
:10255000E36B43F00203E363830705D5D30703D599
:10256000E36B43F00403E363030705D5D20703D508
:10257000E26B42F00802E263E26B002A75D080064B
:1025800004D5880644BF204600F0F0F82068416971
:10259000E26B120701D4490626D5C16821F4907177
:1025A000C16020684169490849004161202084F8E0
:1025B0003A0020684169490612D5416921F040017D
:1025C0004161606B60B10FF291114163606B01F08A
:1025D000BBFB002849D0606B416BBDE83440084725
:1025E000204601F0DAF831BD204601F0D6F800208F
:1025F000E06331BD02062AD50A0628D594F83900D1
:10260000212832D1A068B0F5805F206A0BD1008804
:10261000C005C00D586020690028206A0CBF801CCE
:10262000401C206203E0411C216200785860E08C6D
:10263000401EE08480B2C0B92068C16821F08001EA
:10264000C1602068C16841F04001C16031BD4006F1
:102650000BD5480609D5D86820F04000D860202066
:1026600084F83900204600F001F831BD704770470A
:102670007047C06B7047000080B5416A0068006811
:1026800080060CD40020C8840868426922F08002C9
:1026900042610868C16841F04001C16001BD08465F
:1026A000FFF7E4FF01BD000080B5406AFFF7DFFFE0
:1026B00001BD000080B50146486A096809688906BD
:1026C00013D40021C1850168CA6822F48072CA60EF
:1026D00001684A69520852004A6101684A6922F059
:1026E00040024A61202180F83A1001F04BF801BD08
:1026F00080B5406AFFF7BCFF01BD000080B5406AAD
:1027000001684A6990F83930212B0AD1120608D5A0
:102710000022C284CA6822F0C002CA60202180F868
:10272000391001684A6990F83A30222B0FD15206CD
:102730000DD50022C285CA6822F49072CA60016871
:102740004A69520852004A61202180F83A10C16B50
:1027500041F01001C16305E080B5406A0021C185E8
:10276000A0F8261001F019F801BD000080B590F81E
:102770003A10222940D18168B1F5805F11D10269F8
:10278000816A002A0268526805D1D205D20D0A80FA
:10279000816A891C03E0D2B20A80816A491C816285
:1027A0000FE001690029816A04D14A1C8262026833
:1027B000526805E04A1C82620268526802F07F0299
:1027C0000A70C18D491EC18589B299B90168CA686C
:1027D00022F02002CA600168CA6822F48072CA60CE
:1027E00001684A69520852004A61202180F83A1073
:1027F00000F0C8FF002002BD022002BD2DE9F04715
:102800000446642520680169E26821F440511143BF
:1028100001611926C168304A1140A268114322693A
:10282000114362691143C1604169A26921F4407199
:1028300011434161294988420ED101F0C7FD074685
:1028400001F0C4FD804601F0C1FD814601F0BEFDEE
:10285000824601F0BBFD0DE001F0B0FD074601F03E
:10286000ADFD804601F0AAFD814601F0A7FD82463C
:1028700001F0A4FD616806FB07F2890006FB09F779
:1028800006FB08F3B7FBF1F7B3FBF1F3B7FBF5F782
:1028900005FB17331B013233B2FBF1F2B3FBF5F347
:1028A000B2FBF5F203F0F00303EB0212704306FBF8
:1028B0000AF3B0FBF1F0B3FBF1F3B0FBF5F005FB6D
:1028C000103000013230B0FBF5F0216800F00F004D
:1028D00080188860BDE8F087F3E9FFFF0038014009
:1028E00038B504460B20FEF79AFA05000CD00022FA
:1028F0000B2100F0EBFA2046FEF791FAC5F807002D
:1029000020B92846FEF7E6FB002032BD0022214612
:1029100000F0DCFA002068802880AC80A87128468E
:1029200032BDF0B443880488A34204D2D3189C4239
:102930000FDB002312E09C4208D28588D718BD42E5
:10294000BEBF551B5B199C42F3DA02E08379002B72
:10295000EFD0F0BC002070475B1C491C9BB2934237
:1029600012D24488651C4580ADB2D0F807700E784D
:10297000E6558488A54204BF002444804488058825
:10298000AC42E9D1012181710120F0BC704702887D
:1029900043889A4204BF8379002B01D100207047FD
:1029A000531C03809BB2D0F807C012F80C200A70A9
:1029B00081888B4204BF002101808179012904BFF5
:1029C000002181710120704770B4438804889C42C3
:1029D00003D1837963B100230EE09C4203DA1B1B11
:1029E0009342F8DA04E08688341B1B199342F2DA2A
:1029F00070BC00207047491CDBB2934211D204889E
:102A0000651C0580ADB2D0F80760A45D0C708488A9
:102A1000A54204BF00240480048845885B1CAC42A6
:102A2000E9D18179012904BF0021817170BCD8B23C
:102A3000704702888A422FBF511A8388591A891811
:102A4000018042880188914204BF01218171704751
:102A500070B58CB0FFF750FB00F098F9C14CC24D37
:102A6000606840F0040060600022606800F00400CC
:102A700000904FF440510098606840F0080060609A
:102A8000606800F00800009000982846FFF709FBF6
:102A9000B64E00224FF488513046FFF702FB4FF448
:102AA0000160059005A9B2480690002007903046C5
:102AB000FFF72AFA4FF44050059005A9012006902F
:102AC00000200790022008902846FFF71DFA4FF4D7
:102AD0008850059005A9012006900020079002204B
:102AE00008903046FFF710FA002200210A2000F07B
:102AF00090FE0A2000F0B9FE00221146282000F0C6
:102B000088FE282000F0B1FE206840F0010020601F
:102B10000022206800F001000090114600980C206F
:102B200000F077FE0C2000F0A0FE002211460F20DE
:102B300000F06FFE0F2000F098FE002211461020DA
:102B400000F067FE102000F090FE002211461120D8
:102B500000F05FFE112000F088FE864C8648206061
:102B60004FF416550020A060E060206165600C20E5
:102B700060610020A061E0612046FFF71DFB00B10D
:102B8000FEE77E4820644FF4E13060640020A064DA
:102B9000E06420650C2060650020A065E06504F11C
:102BA0004000FFF709FB00B1FEE77548C4F880005C
:102BB000C4F884500020C4F88800C4F88C00C4F81D
:102BC000900004F180050C20C4F894000020C4F8A3
:102BD0009800C4F89C002846FFF7EEFA00B1FEE723
:102BE0006848C4F8000104F580764FF0FF30C4F85F
:102BF00004014FF48070C4F80801304601F010FC65
:102C000000B1FEE78DF800008DF801008DF802009C
:102C1000012200A9304601F079FC00B1FEE7012055
:102C20008DF810008DF811008DF81200012200209F
:102C30008DF8130004A9304601F04EFD00B1FEE707
:102C40005148C4F8C00004F1C0064BF68030C4F807
:102C5000C4000020C4F8C8000A20C4F8CC0000203A
:102C6000C4F8D0008020C4F8D800304601F0AAFE95
:102C700000B1FEE74FF48050059005A9304601F001
:102C8000BCFF00B1FEE709900A9009A9304602F0A6
:102C900089F800B1FEE700F001FB00F031FC04F11F
:102CA000400000F093F92846FEF754FD2046FEF759
:102CB00051FD40F2FD30ADF8040001A907208DF868
:102CC000070014208DF8090001208DF80D008DF803
:102CD0000B008DF8060000208DF80E0005208DF801
:102CE000080001208DF80A0002208DF80C0028460B
:102CF000FEF7E6FE2846FEF73EFF1920ADF8040079
:102D000001A907208DF807001E208DF80900012079
:102D10008DF80D008DF80B008DF8060000208DF861
:102D20000E0005208DF8080001208DF80A008DF8AE
:102D30000C002046FEF7C4FE2046FEF71CFF284686
:102D4000FEF749FD2046FEF746FD304601F071FED4
:102D5000FFF702F800F04CFA00F016FB00F06AFCF6
:102D6000F6E7000014100240000C0140000801408A
:102D700000001110E801002000380140004400402C
:102D800000480040002800400008004000B593B013
:102D90000A20099001200D9010200E9001200F9024
:102DA00002201090002011904FF42010129009A8DA
:102DB00001F0C2F800B1FEE70F20049001210220CB
:102DC0000590002006904FF4806007900020089046
:102DD00004A801F02AFA00B1FEE7012000904FF4A8
:102DE0000070019000A802F009F800B1FEE701F0C0
:102DF000E2FA4FF47A71B0FBF1F000F040FD0420EC
:102E000000F04EFD002200214FF0FF3000F001FDE8
:102E100013B000BDFEE7000062B38B0708D0521E5E
:102E200011F8013B00F8013B00F024808B07F6D13C
:102E3000830740F0208000BF103A07D330B4B1E8D8
:102E40003810103AA0E83810F9D230BC530724BF2C
:102E5000B1E80810A0E8081044BF51F8043B40F85E
:102E6000043BD20724BF31F8022B20F8022B44BFC9
:102E70000B7803707047083A07D3B1E80810083A96
:102E800040F8043B40F804CBF7D25307E4E70000D6
:102E900062F30F2262F31F4200B500BF1300964693
:102EA0009446103928BFA0E80C50FAD85FEA417C5C
:102EB00028BF0CC048BF40F8042BC90728BF20F822
:102EC000022B48BF00F8012B00BD000062F30F2267
:102ED00062F31F42401810F0030308D0C91A1FD331
:102EE000DB0748BF00F8012D28BF20F8022D130092
:102EF00030B414461546103928BF20E93C00FAD8F2
:102F0000490728BF20E90C0048BF40F8042D89007C
:102F100028BF20F8022D48BF00F8012D30BC7047B3
:102F2000C91818BF00F8012DCB0728BF00F8012DE4
:102F30007047F0B5002348F205050124C9B201B37A
:102F400010F8016B0027491EBC4604FA0CFE16EA75
:102F50000E0F05D0CCF1070204FA02F21743FFB2BC
:102F60000CF1010CBCF1080FEFDB83EA0723082208
:102F70005E001B044CBF85EA06033346521EF7D1A0
:102F8000DCE7002004FA01F29DB2154205D0C1F140
:102F90000F0204FA02F2104380B2491C1029F1DB3F
:102FA000F0BD0022C9B271B110F8013B5A40491E70
:102FB00008234FEA520CD2074CBF8CF08C026246B9
:102FC0005B1EF6D1EEE710467047000038B50546A7
:102FD0002220FDF724FFAE4C206000283BD00021CA
:102FE0000180C0F80250AB49C0F80A10AA49C0F8E5
:102FF00006104021C18106210182211DC0F8121056
:1030000004F14401C0F816108020FFF769FC0100AC
:103010002068C0F81E100BD08020FFF761FC2368E9
:10302000C3F81A0040B9D3F81E00FEF753F8206821
:10303000BDE83240FEF74EB8DA89D3F81210D3F863
:103040000200FFF715FA2068D0F802000068C16896
:1030500041F01001C16031BD10B50C46002818BF09
:10306000002C72D0C17A012918BF02290CD0032983
:103070001AD004292ED0052932D0062939D00729A3
:103080004AD066294BD060E0417B71B3012917D04B
:10309000022917D0032917D0042917D0092917D0DE
:1030A000632952D16F212CE0417B012908D00229EC
:1030B00008D0032908D0042908D0092908D044E001
:1030C00066211EE067211CE068211AE0692118E0F2
:1030D0006A2116E0417B41B1012936D16B2110E014
:1030E000417B11B1012902D02FE0652109E06C215B
:1030F00007E0417B11B1012902D026E06D2100E0FB
:103100006E2121700068C4F8010005212046FFF7F8
:1031100048FF6071012010BD417B2170F2E7417BC7
:10312000012906D011D3032907D004D3042906D0DE
:103130000BE0C92104E0CA2102E0CB2100E0CC2150
:1031400021700089A4F80100DFE7002010BD1CB544
:103150004F490C6800A9FFF77FFF40B1D4F81A006F
:10316000062200A9FFF7DDFB08B1012016BD0020F3
:1031700016BD1CB5464B1C688DF800006A3805D09A
:103180000E38022804D8ADF8011001E0CDF8012076
:10319000052100A8FFF705FF8DF805000622D4F8E9
:1031A0001A0000A9FFF7BDFB13BD39490968006883
:1031B000D1F802201268904201D1084670470020E1
:1031C000704710B5324C2168D1F8021000680A68C7
:1031D00090420CD10846FEF760FD2068C289D0F805
:1031E0001210D0F80200BDE81040FFF741B910BD41
:1031F00070B5274C206884B0D0F81A50D0F81E0063
:10320000082200A9FFF7E0FB48B3072100A8FFF759
:10321000C8FE9DF80710884237D19DF8061008298E
:1032200002D100F0F8F91AE0009ABDF8040000F0AD
:103230006FF8012813D0BDF804002668ADF8090026
:103240007A218DF8081002A80521FFF7AAFE8DF853
:103250000D000622D6F81A0002A9FFF762FB2068CB
:10326000D0F8021091F8391020290ED1D0F816109C
:1032700006222846FFF7A8FB38B12068D0F81610C0
:10328000D0F802000622FFF7B3F804B070BD0000CA
:103290009003002064040020A804002080B50820CA
:1032A000FDF7BDFD8649086010B100214160016055
:1032B00001BDF8B5044682480068054601E00546B0
:1032C000006830B141680029F9D00989A142F6D1DE
:1032D0001CE00820FDF7A3FD060007D01020FDF735
:1032E0009EFD070004D13046FDF7F4FE0020F2BD3C
:1032F0001021FEF74DFF2E607760002030603C818A
:103300001E20B872642038730020B8730120F2BD0B
:1033100010B56B4B1B68C3B15C68002CFAD02489D4
:103320008442F7D15868047B642C08D1C172002113
:1033300058680260417368205968087303E00021EF
:103340006A20FFF716FF012010BD002010BD30B429
:103350005B4C2468B4B16568002DFAD02D89854294
:10336000F7D16068C57A8D4204BF0568954205D0E3
:10337000662908BF002A05D1C172606843736620C0
:103380006168087330BC704738B54D4C25680BE058
:1033900064210173002168680160C17200206968BE
:1033A0004873696888732D68002D68D068680028A4
:1033B000F9D0017B642906D0652926D066295FD023
:1033C000682912D0EFE700F07DF869684A68801A32
:1033D0001F28E8D36820087365206968C872002038
:1033E0006968487369680860DDE70368C27A817AB2
:1033F0000089FEF72BFC0128D5D169686520087388
:1034000000F060F869684860CDE700F05BF8696833
:10341000CA7A652A14BF052204224B68C01A90425A
:10342000C1D3682008736868817B491C8173686810
:10343000817B0329B7DB018900227920FFF799FE00
:103440006868008900F0D1F86868216800890C6814
:1034500001E02146246894B16268002AF9D01289FB
:103460008242F6D1206808606068FDF733FE0020D4
:10347000606020602046BDE83240FDF72BBE31BDC4
:1034800000F020F8014668684160C17A65293FF480
:103490007FAFFFF75CFE002885D06868417B632919
:1034A00002D16521017308E064210173002168687D
:1034B0000160C172002069684873002071E7000054
:1034C0007005002080B5002200A90C4801F076F8B4
:1034D0009DF80100C0EB00119DF8020000EB810097
:1034E00002BD80B5002200A9044801F067F89DF8EC
:1034F00001009DF8021041EA001002BDE802002020
:1035000070B586B00820FDF78AFC6B4C206000285F
:103510004AD00820FDF783FC01002068416031D0CB
:1035200000224A604FF6FF7241680A8000224A80FA
:1035300002706248624A0168914210D144689CB3AB
:10354000604D55F8041B0E0C89B2304600F02EF881
:103550003046FFF7AEFE641EF3D106B070BD01F039
:1035600030FE0020009001900120049000A9534DEE
:10357000039501A801F092FE40B120684068FDF774
:10358000A9FD2068FDF7A6FD06B070BD4C4A0023DA
:103590002946022001F01AFD002200234A49022098
:1035A00001F014FD01F01BFE06B070BDF8B5044635
:1035B00041480668776878680D4601E0074640682C
:1035C00020B10188A142F9D145800CE00820FDF727
:1035D00026FC786040B13078401C3070002178685B
:1035E0000480458041600120F2BD10B5324C216855
:1035F0004A68516801E00A46496859B10B8883421C
:10360000F9D1486850600846FDF764FD20680178EC
:10361000491E017010BD10B5274800684068446815
:1036200005E0218800227820FFF7A3FD6468002CC4
:10363000F7D110BD70B586B0FFF744FF1E494A6848
:10364000821A3D2A36D348600020009000240D687D
:103650001A481B49006888422CD101F0B2FD0120B4
:103660000490019400A9154E039601A801F016FEDE
:1036700000BB134A00233146022001F0A7FC2A7840
:1036800011492346022001F0A1FC68680D4E4568EF
:103690000CE02888698841EA0042E4B2002306EB86
:1036A0008401022001F092FC6D68641C002DF0D1B1
:1036B00001F095FD06B070BD6805002000F000081F
:1036C000D2C3B4A508F0000804F000087047FEE774
:1036D000FEE7FEE7FEE770477047704780B5FEF7EC
:1036E00037FDBDE8014000F0F5B81A4801F044BECE
:1036F00001F0E0BC1020FEF7D8BC174800F070BB0A
:10370000164800F06DBB164800F06ABB154800F083
:1037100067BB154801F0CCB910B5144C01E010B5E9
:10372000134C82B02046FEF7F1FE2068C068C00648
:103730000CD52046FEF7B1FA012807D100200090F1
:1037400020680168009140680090009813BD094806
:10375000FEF7DCBEE8020020EC040020200400207C
:1037600064040020A8040020A8020020E801002032
:1037700028020020680200204FF40060FEF795BC8C
:10378000FDF77BBF10B50446FEF7D0FA2046BDE832
:103790001040FFF716BDFDF763BF10B582B00446B9
:1037A000FEF767FF410707D50021009121680A68ED
:1037B0000092496800910099C10707D50021009146
:1037C00021680A680092496800910099810707D52D
:1037D0000021009121680A680092496800910099CF
:1037E000000707D50020009021680868009048680D
:1037F0000090009813BD00002F490A684FF6FF03A0
:103800001A4000F0070042EA00202C4A10430860EA
:10381000704730B4284B1B68C3F30223C3F107047D
:10382000052C28BF0F2404D20124C3F10705AC40A6
:10383000641E1D1D072D34BF0023DB1E214099404F
:10384000012404FA03F35B1E1A4011430901002806
:1038500007D51B4A00F00F00801800F8041C30BC8C
:103860007047184A815430BC7047012100F01F0294
:103870009140154AFFE7400942F820107047401E6A
:10388000B0F1807F01D3012070471049104A486091
:10389000F02010700020886007200860002070472A
:1038A0000A49042808680CBF40F0040020F0040016
:1038B00008607047000000000CED00E00000FA0511
:1038C00018ED00E000E400E000E100E010E000E0BE
:1038D00023ED00E080B500F001F801BD7047000065
:1038E00080B5DFF8EC02016841F001010160016878
:1038F00001F0010100910099416841F0805141605F
:10390000406800F08050009000980320FFF774FF9B
:10391000002200216FF00B00FFF77BFF0022114611
:103920006FF00A00FFF775FF002211466FF00900E3
:10393000FFF76FFF002211466FF00400FFF769FFE9
:10394000002211466FF00300FFF763FF00221146CB
:103950006FF00100FFF75DFF002211464FF0FF30CE
:10396000FFF757FF002211460420FFF752FF042003
:10397000FFF77BFF9748016821F0E06141F000719B
:10398000016001BD80B500689349884218D101F0FB
:1039900013FD9248016841F0006101600022006857
:1039A0008F4900F00060009000980120086000211D
:1039B0000320FFF72EFFBDE802400320FFF755BFAD
:1039C00001BD80B500688749884213D183480168EA
:1039D00041F0040101600022006800F00400009042
:1039E000002100981E20FFF714FFBDE802401E20B2
:1039F000FFF73BBF01BD70B5044686B020687A4929
:103A000088423FD17248794D016841F4804101609C
:103A100001A9006800F48040009000984FF4007005
:103A2000019002200290032004902846FEF76CFAD1
:103A30004FF48060019001A9002002900390284675
:103A4000FEF762FA6A4D6B483C30286000206860DF
:103A5000A8608020E860002028616861A861E861B2
:103A6000284600F0F7F820B1DA210FF2A410FFF792
:103A7000D1F965636C62002200212520FFF7C9FEA1
:103A80002520A0E05C4988425AD15148574D4168F1
:103A900041F40031416001A9406800F40030009019
:103AA00000980420019002200290032004902846F0
:103AB000FEF72AFA0820019001A900200290039045
:103AC0002846FEF721FA4B4D4C4E05F15000306070
:103AD00000207060B0608020F06000203061706174
:103AE000B061F061304600F0B5F828B14FF4847150
:103AF0000FF21C10FFF78EF96663746205F1640023
:103B00003F4E3060102070600020B0608020F06078
:103B1000002030617061B061F061304600F09AF8C9
:103B200028B14FF48C710FF2E800FFF773F92663A8
:103B30007462002200212620FFF76BFE262042E05F
:103B40003049884241D122482F4D416841F48021BB
:103B5000416001A9406800F48020009000984FF473
:103B60008060019002200290032004902846FEF716
:103B7000CBF94FF40060019001A90020029003905E
:103B80002846FEF7C1F9214D1A48286010206860C8
:103B90000020A8608020E860002028616861A8619A
:103BA000E861284600F056F828B14FF4A3710FF2EF
:103BB0006000FFF72FF925636C62002200212720A7
:103BC000FFF727FE2720FFF750FE06B070BD00006C
:103BD0001810024004000140002800401C10024060
:103BE0003C04424200080040003801400008014007
:103BF000200400201C000240004400406404002017
:103C0000A804002000480040000C0140EC04002003
:103C1000433A5C55736572735C41646D696E697398
:103C2000747261746F725C506572736F6E616C5CFC
:103C30006C6F72615C7365727665725C5372635C03
:103C400073746D3332663178785F68616C5F6D7361
:103C5000702E630008B9012070470168DFF8B422B4
:103C600052181423B2FBF3F292000264DFF8A82288
:103C7000C263022280F821200A6843686FF30D12A4
:103C80001A4383681A43C3681A4303691A43436992
:103C90001A4383691A43C3691A430A600021816287
:103CA000C16201634163816346E070B41C4690F8D1
:103CB00020500023012D08BF02203BD0012580F8B1
:103CC000205090F82150012D30D1022580F821504C
:103CD000836305682E68760876002E600125066CE1
:103CE000B540C66B756005686C604468102C04684C
:103CF00003D1A2600268D16002E0A1600168CA60DD
:103D00000168C26A002A0A6818BF42F00E0206D192
:103D100022F004020A6001680A6842F00A020A609E
:103D20000068016841F00101016002E080F8203084
:103D30000223184670BC7047012180F82110002131
:103D400080F820100020704710B590F82110002452
:103D5000022903D00421816301243FE001680A683D
:103D600022F00E020A6001680A68520852000A60D6
:103D70000168DFF8A821914208BF012122D0DFF8B5
:103D8000A021914208BF10211CD0DFF89821914258
:103D900008BF4FF4807115D0DFF88C21914208BF25
:103DA0004FF480510ED0DFF88421914208BF4FF4C8
:103DB000803107D0DFF8782191420CBF4FF4801199
:103DC0004FF08071DFF86C211160012180F8211023
:103DD00080F82040416B0A0018BF8847204610BD7C
:103DE00030B4C16B0A6801680B68046C0425A540F7
:103DF0002A4233D05D0731D50A68920603D40A6897
:103E000022F004020A600168444A914208BF04217A
:103E10001DD0434A914208BF402118D0414A9142E7
:103E200008BF4FF4806112D03F4A914208BF4FF45F
:103E300080410CD03D4A914208BF4FF4802106D00A
:103E40003B4A91420CBF4FF480014FF08061394AE8
:103E50001160C16A0A005BD030BC08470225A5404A
:103E60002A4239D09D0737D50A68920606D40A68D7
:103E700022F00A020A60012180F821100168274A15
:103E8000914208BF02211DD0254A914208BF20213E
:103E900018D0244A914208BF4FF4007112D0224A30
:103EA000914208BF4FF400510CD0204A914208BF04
:103EB0004FF4003106D01E4A91420CBF4FF400115E
:103EC0004FF000711B4A1160002180F82010816AB8
:103ED0000A001DD030BC0847082505FA04F4224228
:103EE00016D01A0714D50A6822F00E020A600121C2
:103EF000026C9140C26B51600121816380F82110F6
:103F0000002180F82010016B0A001CBF30BC08475C
:103F100030BC7047F8FFFDBF0000024008000240BF
:103F20001C000240300002404400024058000240A1
:103F30006C000240040002402DE9F041044682B0CA
:103F40002078DFF89C54C0074CD5686800F00C005E
:103F5000042807D0686800F00C0008280BD16868B6
:103F6000C00308D5286880033CD56068002839D193
:103F70000120BDE8F6816068B0F5803F03D1286874
:103F800040F4803013E008B928680AE0B0F5A02FAB
:103F9000286806D140F480202860286840F48030EA
:103FA00005E020F480302860286820F48020286014
:103FB000606858B1FEF7D2F806462868800311D42D
:103FC000FEF7CCF8801B6528F7D328E1FEF7C6F88A
:103FD00006462868800305D5FEF7C0F8801B6528D3
:103FE000F7D31CE12078800718D5686810F00C0F13
:103FF00007D0686800F00C00082825D16868C00365
:1040000022D42868800702D520690128B0D1286809
:10401000616920F0F80040EAC100286020780007BC
:1040200040D5A169DFF8C403002965D001210160F2
:10403000FEF794F80646686A800724D4FEF78EF8E7
:10404000801B0328F7D3EAE02069DFF8A47368B186
:1040500001203860FEF782F8064628688007D6D42B
:10406000FEF77CF8801B0328F7D3D8E03860FEF712
:1040700075F8064628688007D0D5FEF76FF8801BD4
:104080000328F7D3CBE04FF47A71DFF858030068C8
:10409000C008B0FBF1F0009000BF0098411E0091F5
:1040A0000028F9D12078400771D5E8690027C000C1
:1040B00009D4E86940F08050E8610127E86900F020
:1040C000805000900098DFF82C83D8F80000C005DD
:1040D0001FD4D8F8000040F48070C8F80000FEF744
:1040E0003DF80646D8F80000C00512D4FEF736F8B1
:1040F000801B6528F6D392E00160FEF72FF8064694
:10410000686A8007CED5FEF729F8801B0328F7D30D
:1041100085E0E068012803D1286A40F0010012E040
:1041200008B9286A09E00528286A06D140F0040089
:104130002862286A40F0010005E04008400028623B
:10414000286A20F004002862E06868B1FEF706F8EB
:10415000064641F28938286A800713D4FDF7FEFF2E
:10416000801B4045F7D35AE0FDF7F8FF064641F2C1
:104170008938286A800705D5FDF7F0FF801B404588
:10418000F7D34CE01FB1E86920F08050E861E069A6
:10419000002847D0696801F00C0108293FF4E8AE17
:1041A000DFF84C7202282DD100203866FDF7D6FFCB
:1041B00006462868800105D5FDF7D0FF801B03283F
:1041C000F7D32CE0206AB0F5803F05D16868A1687C
:1041D00020F40030084368606868216A20F4741095
:1041E0000843616A0843686001203866FDF7B6FF3E
:1041F00006462868800115D4FDF7B0FF801B032810
:10420000F7D30CE000203866FDF7A8FF06462868C3
:10421000800107D5FDF7A2FF801B0328F7D30320F9
:10422000BDE8F6810020BDE8F6812DE9F041724E2F
:1042300004463068884600F00700404509D23068DF
:10424000C00848EAC0003060306800F00700404510
:104250005ED12078624F800705D57868A16820F08C
:10426000F000084378602078C00742D560680128D4
:1042700002D13968890303E03968022802D1890133
:1042800002D445E0890743D57968890840EA81006E
:104290007860FDF763FF0546606801280CD17868F7
:1042A00000F00C00042824D0FDF758FF401B41F219
:1042B00089318842F3D319E002280CD1786800F0E4
:1042C0000C00082815D0FDF749FF401B41F2893149
:1042D0008842F3D30AE0786810F00C0F09D0FDF79C
:1042E0003DFF401B41F289318842F4D30320BDE8F1
:1042F000F081306800F0070080450CD23068C008BB
:1043000048EAC0003060306800F00700404502D045
:104310000120BDE8F0812078400705D57868E16884
:1043200020F4E060084378602078000706D57868BC
:10433000216920F4605040EAC100786000F00EF876
:104340007A682E49C2F30312515CC84025490860BF
:104350000020FDF7E1FE0020BDE8F08130B485B01B
:104360000FF2A8013CC901A83CC00FF2B0000088C0
:10437000ADF800002248016801F00C02082A16D1AD
:1043800001AAC1F38343C9039A5C0BD5006816499F
:10439000514300AAC0F34040805C05B030BCB1FB83
:1043A000F0F0704705B030BC16485043704705B078
:1043B00030BC0D4870470B48006870470948104AE8
:1043C000006812681049C2F3022206E005480C4A50
:1043D000006812680C49C2F3C222515CC8407047A1
:1043E000001002400C00002000127A0080044242BB
:1043F0000000424200700040002002403454000897
:104400000410024000093D00DC54000802030405CA
:10441000060708090A0B0C0D0E0F10100102000010
:1044200070B504001CD0607C18B920742046FFF7DA
:10443000A9FA022060742068416821F008014160F7
:10444000FDF78CFE064640F2E9352068406800071B
:1044500008D4FDF783FE801BA842F6D304206074C5
:10446000012070BDFDF77AFE064620684168890686
:1044700005D4FDF773FE801BA842F6D3EEE7416832
:1044800041F01001416020684168C908C9004160DD
:10449000DFF81803A16819B1416849084900416073
:1044A0000168A26821F4607111430160606810F135
:1044B000010F05D1012000F013FD0028CED0401ED1
:1044C00021688A681209120142EA10428A6080B2A9
:1044D0002168CA68120C40EA0240C860206841683E
:1044E00021F010014160FDF739FE06462068406862
:1044F000800605D4FDF732FE801BA842F6D3ADE757
:104500000020E07301206073A07353E170B50400D4
:1045100018BF00294FD0207C012801D1022070BD96
:1045200001202074022060744B7888780D784FF455
:1045300061612AB9C3EB0312920001FB05211CE063
:104540002A0902EB820605F00F0202EB46021D0962
:1045500005EB850603F00F0303EB4603DBB2C3EB69
:104560000315D2B2AB0001FB0231020902EB820358
:1045700000F00F0000EB4300C0B24518294620466A
:1045800000F02CF998B92068416821F005014160DC
:10459000204600F051F910F1010F0ED0A8420CD2C4
:1045A000DFF80C120918204600F04EF928B104205B
:1045B000607400202074012070BDF1E02DE9F84303
:1045C00007000D46914618BF002D6FD0386840682F
:1045D00040076BD4384600F0F0F804464FF46160B1
:1045E000B4FBF0F04FF4616101FB10413C22B1FBE0
:1045F000F2F2C2EB02136A70A1EB8301A9701828D2
:1046000057D31821B0FBF1F808EB4801A0EBC1002B
:1046100028703868016A406A89B280B240EA014075
:1046200010F1010F03D0844238BF061B01D34FF0B5
:10463000FF36DFF87C0100FB18442146384600F0C5
:10464000CDF898BB16F1010F09D0A119384600F03A
:10465000FBF858BB4146384600F033F92AE0FDF735
:104660007DFD064640F2E93438684168890605D484
:10467000FDF774FD801BA042F6D317E0416841F0BE
:10468000100141604FF6FF7101624162416821F003
:1046900010014160FDF762FD0646386840688006FB
:1046A000D8D4FDF75BFD801BA042F6D30120BDE806
:1046B000F2832870B9F1000F0BD0287800F0F4F8DD
:1046C0002870687800F0F0F86870A87800F0ECF8CE
:1046D000A8700020BDE8F28370B504000D4618BF35
:1046E000002D5BD0207C012801D1022070BD01206B
:1046F000207402206074E87822B9E07368786073EF
:10470000A87818E0010901EB810200F00F0000EB2E
:104710004200E0736878010901EB810200F00F00AC
:1047200000EB42006073A878010901EB810200F000
:104730000F0000EB4200A073A27B617BE07B00F0E6
:1047400011F920732870204600F037F805464FF421
:104750006160B5FBF0F0192822D31821DFF8506012
:10476000B0FBF1F006FB10552946204600F036F864
:1047700080B92068016A406A89B280B240EA01408B
:1047800010F1010F0CD0A8420AD23118204600F0D7
:104790005BF828B10420607400202074012070BDF3
:1047A000012060740020207470BD00002C6C00405B
:1047B000805101006074002070BD00688169C26989
:1047C000836989B29BB2994204D0C06980B240EA41
:1047D0000340704792B242EA014070472DE9F04130
:1047E00004460F460025FDF7B9FC064640F2E938BD
:1047F00020684168890605D4FDF7B0FC801B404560
:10480000F6D317E0416841F010014160390C816135
:10481000B9B2C161416821F010014160FDF79EFC11
:10482000074620684068800605D4FDF797FCC01B4A
:104830004045F6D3012534E00068016A406A89B238
:1048400080B240EA014070472DE9F04104460F462E
:104850000025FDF783FC064640F2E93820684168F0
:10486000890605D4FDF77AFC801B4045F6D317E096
:10487000416841F010014160390C0162B9B24162F6
:10488000416821F010014160FDF768FC074620688F
:104890004068800605D4FDF761FCC01B4045F6D397
:1048A00001252846BDE8F08100210A2805D30A2108
:1048B000B0FBF1F1F62202FB010040EA0110C0B2A8
:1048C0007047F8B50446E07B637BA27B002940D0AB
:1048D0004FF4C8766427012B18BF032B08D0052B93
:1048E00018BF072B04D0082B1CBF0A2B0C2B07D199
:1048F0001F2A26D30C2B28D101230122401C26E09D
:10490000042B18BF062B03D0092B18BF0B2B02D189
:104910001E2A1AD215E0022B19D11C2A11D312D14A
:104920000325284211D11FFA80FC6425BCFBF5F554
:1049300007FB15C52DB93546BCFBF5F506FB15C5BE
:104940001DB9521C03E01D2A01D15B1C0122491E26
:10495000C1D1E0736373A273D9B2D2B200F002F88E
:104960002073F1BD17234B434FF0090CB3FBFCF34D
:1049700000F5FA60D218821803290DD2401E02EB0E
:1049800090016422091DB0FBF2F2891A4FF4C8723B
:10499000B0FBF2F040180CE002EB90016422091D1C
:1049A000B0FBF2F2891A4FF4C872B0FBF2F0401873
:1049B000801E0721B0FBF1F1C1EBC101401AC0B26A
:1049C0007047000038B5040001D1012032BD94F8D1
:1049D0003D0020B984F83C002046FEF7F2FF02209B
:1049E00084F83D00201D2168DFF8B0200B6891425B
:1049F00018BFB1F1804F07D0DFF8A450A9421CBF07
:104A0000DFF8A050A9420BD1456823F070032B4377
:104A100091421EBFB1F1804FDFF88450A94203D00C
:104A2000DFF88050A94203D1C56823F440732B43BB
:104A300005E00068C16841F00101C16028E04569F6
:104A400023F080032B430B6091428368CB620368A1
:104A50008B6203D10069DFF85020106001204861AB
:104A600084F83D00002032BD0068012202FA01F105
:104A7000026A8A430262026A11430162DFF81C1073
:104A8000884205D1DFF824100A6842F400420A6027
:104A9000016841F00101016000207047002C0140D5
:104AA0000004004000080040302C0140442C01402C
:104AB00010B5044620680169890716D5C1688907C1
:104AC00013D56FF00201016101212177806910F097
:104AD000030F204602D000F060F904E000F05CF91A
:104AE000204600F05BF90020207720680169490723
:104AF00016D5C168490713D56FF004010161022181
:104B00002177806910F4407F204602D000F045F9FB
:104B100004E000F041F9204600F040F90020207741
:104B200020680169090716D5C168090713D56FF018
:104B30000801016104212177C06910F0030F2046AC
:104B400002D000F02AF904E000F026F9204600F037
:104B500025F90020207720680169C90616D5C168AB
:104B6000C90613D56FF01001016108212177C069D2
:104B700010F4407F204602D000F00FF904E000F06E
:104B80000BF9204600F00AF900202077206801691F
:104B9000C90708D5C168C90705D56FF001010161D2
:104BA0002046FEF7F8FD20680169090608D5C168AE
:104BB000090605D56FF080010161204600F01DF95E
:104BC00020680169490608D5C168490605D56FF016
:104BD00040010161204600F0E2F820680169890681
:104BE0000AD5C168890607D56FF02001016120460A
:104BF000BDE8104000F000B910BD70B490F83C2042
:104C0000012A08BF022000F0C480012280F83C2065
:104C1000022280F83D20DFF8884102689368234033
:104C200093600A68002A00F09180102A00F09580B5
:104C3000202A00F09980302A00F09D80402A6AD016
:104C4000502A31D0602A4AD0702A0BD0B2F5805F4A
:104C500003D0B2F5005F16D094E001688A68D208EC
:104C6000D2008EE0CA684B6804688968A56825F49C
:104C70007F452943194341EA0221A16001688A68FE
:104C800042F077027DE0CA684B6804688968A568CD
:104C900025F47F452943194341EA0221A1600168B7
:104CA0008A6842F480426CE0CA684B68046804F188
:104CB00018018D688E68760876008E60A66926F0E9
:104CC000F00646EA0212A26125F00A021A438A603F
:104CD00001688A6822F0700242F0570251E0CA6807
:104CE0004B68046804F118018D6825F010058D608B
:104CF000A5698E6825F4704545EA0232A26126F066
:104D0000A00242EA03128A6001688A6822F07002F7
:104D100042F0670235E0CA684B68046804F1180184
:104D20008D688E68760876008E60A66926F0F0069B
:104D300046EA0212A26125F00A021A438A6001685B
:104D40008A6822F0700242F047021AE001688A681D
:104D500022F0700242F0070213E001688A6822F034
:104D6000700242F017020CE001688A6822F07002BB
:104D700042F0270205E001688A6822F0700242F0E2
:104D800037028A60012180F83D10002180F83C1034
:104D9000002070BC70470000704770477047704734
:104DA0008800FFFF90F83C20012A01D102207047C3
:104DB000012280F83C20022280F83D2002685368DE
:104DC00023F07003536002685368D1F800C04CEAC6
:104DD000030353600268936823F0800393600268C2
:104DE0009368496819439160012180F83D100021C2
:104DF00080F83C1000207047704770472DE9F04163
:104E0000044682B02078C00753D5654DA8690026B6
:104E1000C00009D4A86940F08050A8610126A869A3
:104E200000F08050009000985E4F3868C00510D4A4
:104E3000386840F480703860FDF790F98046386833
:104E4000C00506D4FDF78AF9A0EB08006528F6D363
:104E500021E0E86910F440701EBF616801F4407100
:104E600088421BD0E869504901220A6020F4407052
:104E700000220A60E861C00710D5FDF76FF980468F
:104E800041F28937E869800708D4FDF767F9A0EB9C
:104E90000800B842F6D30320BDE8F681E8696168EE
:104EA00020F440700843E8611EB1A86920F08050EA
:104EB000A8612078800706D5394D2868A16820F4BC
:104EC0004040084328602078C00606D5344D286845
:104ED000E16820F48000084328600020BDE8F681E6
:104EE00070B586B00FF2D00278CA014601A878C02A
:104EF0000FF2D4000088ADF800000020012920D076
:104F0000022941D0102949D128494A680B68DB01A0
:104F100044D501A8C2F38343D203185C09D54A687B
:104F200000ACC2F34042224B125DB3FBF2F250439D
:104F300001E0204A5043496849022FD44000032130
:104F40002AE01A490A6A40F202331340B3F5817F1E
:104F500008BF4FF4004021D002F44073B3F5007F46
:104F600006D1496A890719D549F6404006B070BD97
:104F700002F44072B2F5407F10D1096889030DD563
:104F80004FF2244006B070BDFFF720FA0749496888
:104F9000C1F38131491C4900B0FBF1F006B070BD8E
:104FA00004100240007000404004424200100240E1
:104FB00000127A0000093D000203040506070809F3
:104FC0000A0B0C0D0E0F1010010200002DE9F24F1C
:104FD000AC4C0746207E92469B46012808BF022023
:104FE00066D001202076FDF7B9F805464CF251381D
:104FF000A54E3068C00706D5FDF7B0F8401B404508
:10500000F7D3032052E03068800644BF2020306090
:105010003068C00609D43069C00706D4306840073C
:1050200003D40020012F04D106E000F007F901208D
:105030003CE0022F18BF0427002501E0691CCDB217
:10504000BD4233DAE0615946706840F0010070609B
:105050002A01504600F0B8F9009921F81500FDF733
:105060007DF881463068C00707D5FDF777F8A0EBDB
:1050700009004045F6D3032012E03068800644BFA3
:10508000202030603068C00607D43069C00704D4DF
:105090003068400758BF002002D500F0CFF801204B
:1050A00071684908490071600028C7D00021217645
:1050B000BDE8F28F70B5744D724C2868C00602D4FA
:1050C000286840070AD5A6684FF0FF30A06000F0BE
:1050D000B5F8304600F074F800202070286880068B
:1050E00060D520202860207800285BD02078012817
:1050F0001CD16068401E6060606868B1A06800F004
:105100005EF8A06800F58060A060696821F0020187
:10511000696000F01EF945E04FF0FF30A06000200C
:1051200020704FF0FF3000F04AF83BE02078022872
:1051300007D1686820F004006860002000F03FF8A4
:105140002EE06068401E60606068C8B1A068801C86
:10515000A0600023A268D4E90401000C40EA0140E9
:10516000090CC4E904016868400840006860D4E99B
:105170000401E3616B6843F001036B60108011E090
:105180002078032808BFA06805D020780428A068EC
:105190000CBF801E801F00F012F84FF0FF30A0609F
:1051A00000202070207848B96868C008C000686096
:1051B000686820F4A05068600020207670BD7047B9
:1051C00070473349CA680020120607D5314A0A6081
:1051D000314A0A60C968090648BF012070472B4858
:1051E000016841F0800101600020704770B50546FC
:1051F000FCF7B4FF0646244C2068C0070AD515F119
:10520000010FF9D025B1FCF7A9FF801B8542F3D22D
:10521000032070BD2068800644BF202020602068E5
:10522000C00605D42069C00702D42068400703D512
:1052300000F004F8012070BD002070BD1248026823
:105240000021D20605D50F4AD16941F00201D16192
:1052500010210268520706D50A4AD36943F00103B8
:10526000D36141F004010269D20708D5054AD36928
:1052700043F00403D36102695208520002610160E5
:1052800070470000300500200C2002401020024032
:105290000420024023016745AB89EFCD2DE9F0479B
:1052A000DFF8CC700446387E01268946012808BF05
:1052B00002204CD03E764CF25038206802284046FE
:1052C00017D1FFF793FF00283ED1F861DFF8A44023
:1052D000206840F004002060206840F0400020601A
:1052E0004046FFF783FF0646206820F00400206058
:1052F0002AE0FFF77BFF38BB4FF0FF30C9F8000012
:10530000D4F808A0DFF86C5001E00AF5806AE06884
:10531000A16801EB8020824516D20020F861286840
:1053200040F002002860C5F804A0286840F0400062
:1053300028604046FFF75AFF0600286820F0020068
:105340002860E2D0C9F800A0002038763046BDE8D9
:10535000F087074A0021D16106490A6842F002023B
:105360000A604860086840F040000860704700002C
:10537000300500201020024010B504462068016866
:10538000C90716D54168C90713D5406840072046AC
:1053900007D500F010F821686FF004004860042081
:1053A00002E000F007F8012060746FF0010021684E
:1053B000486010BD704770470249FFE70120086050
:1053C0007047000020000E42D2B2203A22BF21FADC
:1053D00002F0002170472032D141D0404840914036
:1053E000D1404840704700000E480F4A016841F024
:1053F000010101604168114041600C4A016811409F
:105400000160016821F480210160416821F4FE01FE
:1054100041604FF41F0181604FF000600449086053
:1054200070470000001002400000FFF8FFFFF6FE8A
:1054300008ED00E00000000000000000010203048D
:105440000607080910B5074979441831064C7C4411
:10545000163404E00A68081D511888470146A14225
:10546000F8D110BD08000000280000002BCDFFFF80
:105470006C050000100000200000000077C1FFFF55
:1054800010000000DC000000000000200000000010
:1054900000F00BF8002801D0FFF7D4FF0020C04631
:1054A000C046FDF7D5FA00F002F80120704700F081
:1054B00001B8000007463846FCF7C8F8FBE70000D3
:1054C0000148804701480047E9530008D1540008CB
:1054D000C046C046C046C046FFF7DAFF00000000E5
:1054E00001020304FFF7FEBFFFF7FEBFFFF7FEBF99
:1054F000FFF7FEBFFFF7FEBFFFF7FEBFFFF7FEBFE0
:10550000FFF7FEBFFFF7FEBFFFF7FEBFFFF7FEBFCF
:10551000FFF7FEBFFFF7FEBFFFF7FEBFFFF7FEBFBF
:10552000FFF7FEBFFFF7FEBFFFF7FEBFFFF7FEBFAF
:10553000FFF7FEBFFFF7FEBFFFF7FEBFFFF7FEBF9F
:10554000FFF7FEBFFFF7FEBFFFF7FEBFFFF7FEBF8F
:10555000FFF7FEBFFFF7FEBFFFF7FEBFFFF7FEBF7F
:1055600001000000000000001000000000A24A043A
:04000005080054D1CA
:00000001FF
